{
  "contractName": "ResearchPortal",
  "abi": [
    {
      "inputs": [],
      "stateMutability": "nonpayable",
      "type": "constructor"
    },
    {
      "anonymous": false,
      "inputs": [
        {
          "indexed": true,
          "internalType": "uint256",
          "name": "paperId",
          "type": "uint256"
        },
        {
          "indexed": true,
          "internalType": "address",
          "name": "author",
          "type": "address"
        },
        {
          "indexed": false,
          "internalType": "string",
          "name": "title",
          "type": "string"
        },
        {
          "indexed": false,
          "internalType": "string",
          "name": "ipfsHash",
          "type": "string"
        }
      ],
      "name": "PaperSubmitted",
      "type": "event"
    },
    {
      "anonymous": false,
      "inputs": [
        {
          "indexed": true,
          "internalType": "uint256",
          "name": "paperId",
          "type": "uint256"
        },
        {
          "indexed": true,
          "internalType": "address",
          "name": "reviewer",
          "type": "address"
        },
        {
          "indexed": false,
          "internalType": "string",
          "name": "comment",
          "type": "string"
        }
      ],
      "name": "ReviewAdded",
      "type": "event"
    },
    {
      "anonymous": false,
      "inputs": [
        {
          "indexed": true,
          "internalType": "address",
          "name": "user",
          "type": "address"
        },
        {
          "indexed": false,
          "internalType": "string",
          "name": "name",
          "type": "string"
        },
        {
          "indexed": false,
          "internalType": "enum ResearchPortal.Role",
          "name": "role",
          "type": "uint8"
        }
      ],
      "name": "UserRegistered",
      "type": "event"
    },
    {
      "inputs": [],
      "name": "owner",
      "outputs": [
        {
          "internalType": "address",
          "name": "",
          "type": "address"
        }
      ],
      "stateMutability": "view",
      "type": "function",
      "constant": true
    },
    {
      "inputs": [
        {
          "internalType": "uint256",
          "name": "",
          "type": "uint256"
        },
        {
          "internalType": "address",
          "name": "",
          "type": "address"
        }
      ],
      "name": "paperAccess",
      "outputs": [
        {
          "internalType": "uint8",
          "name": "",
          "type": "uint8"
        }
      ],
      "stateMutability": "view",
      "type": "function",
      "constant": true
    },
    {
      "inputs": [],
      "name": "paperCount",
      "outputs": [
        {
          "internalType": "uint256",
          "name": "",
          "type": "uint256"
        }
      ],
      "stateMutability": "view",
      "type": "function",
      "constant": true
    },
    {
      "inputs": [
        {
          "internalType": "uint256",
          "name": "",
          "type": "uint256"
        }
      ],
      "name": "papers",
      "outputs": [
        {
          "internalType": "uint256",
          "name": "paperId",
          "type": "uint256"
        },
        {
          "internalType": "address",
          "name": "author",
          "type": "address"
        },
        {
          "internalType": "string",
          "name": "title",
          "type": "string"
        },
        {
          "internalType": "string",
          "name": "ipfsHash",
          "type": "string"
        },
        {
          "internalType": "uint256",
          "name": "timestamp",
          "type": "uint256"
        }
      ],
      "stateMutability": "view",
      "type": "function",
      "constant": true
    },
    {
      "inputs": [
        {
          "internalType": "address",
          "name": "",
          "type": "address"
        }
      ],
      "name": "users",
      "outputs": [
        {
          "internalType": "enum ResearchPortal.Role",
          "name": "role",
          "type": "uint8"
        },
        {
          "internalType": "string",
          "name": "name",
          "type": "string"
        }
      ],
      "stateMutability": "view",
      "type": "function",
      "constant": true
    },
    {
      "inputs": [
        {
          "internalType": "address",
          "name": "_user",
          "type": "address"
        },
        {
          "internalType": "string",
          "name": "_name",
          "type": "string"
        },
        {
          "internalType": "uint8",
          "name": "_role",
          "type": "uint8"
        }
      ],
      "name": "register",
      "outputs": [],
      "stateMutability": "nonpayable",
      "type": "function"
    },
    {
      "inputs": [
        {
          "internalType": "string",
          "name": "_title",
          "type": "string"
        },
        {
          "internalType": "string",
          "name": "_ipfsHash",
          "type": "string"
        }
      ],
      "name": "submitPaper",
      "outputs": [],
      "stateMutability": "nonpayable",
      "type": "function"
    },
    {
      "inputs": [
        {
          "internalType": "uint256",
          "name": "_paperId",
          "type": "uint256"
        },
        {
          "internalType": "string",
          "name": "comment",
          "type": "string"
        }
      ],
      "name": "addReview",
      "outputs": [],
      "stateMutability": "nonpayable",
      "type": "function"
    },
    {
      "inputs": [
        {
          "internalType": "uint256",
          "name": "_paperId",
          "type": "uint256"
        }
      ],
      "name": "getPaper",
      "outputs": [
        {
          "internalType": "uint256",
          "name": "",
          "type": "uint256"
        },
        {
          "internalType": "address",
          "name": "",
          "type": "address"
        },
        {
          "internalType": "string",
          "name": "",
          "type": "string"
        },
        {
          "internalType": "string",
          "name": "",
          "type": "string"
        },
        {
          "internalType": "uint256",
          "name": "",
          "type": "uint256"
        },
        {
          "internalType": "string[]",
          "name": "",
          "type": "string[]"
        }
      ],
      "stateMutability": "view",
      "type": "function",
      "constant": true
    },
    {
      "inputs": [],
      "name": "getAllPapers",
      "outputs": [
        {
          "components": [
            {
              "internalType": "uint256",
              "name": "paperId",
              "type": "uint256"
            },
            {
              "internalType": "address",
              "name": "author",
              "type": "address"
            },
            {
              "internalType": "string",
              "name": "title",
              "type": "string"
            },
            {
              "internalType": "string",
              "name": "ipfsHash",
              "type": "string"
            },
            {
              "internalType": "uint256",
              "name": "timestamp",
              "type": "uint256"
            },
            {
              "internalType": "string[]",
              "name": "reviews",
              "type": "string[]"
            }
          ],
          "internalType": "struct ResearchPortal.Paper[]",
          "name": "",
          "type": "tuple[]"
        }
      ],
      "stateMutability": "view",
      "type": "function",
      "constant": true
    },
    {
      "inputs": [
        {
          "internalType": "uint256",
          "name": "_paperId",
          "type": "uint256"
        },
        {
          "internalType": "address",
          "name": "_user",
          "type": "address"
        },
        {
          "internalType": "uint8",
          "name": "_accessLevel",
          "type": "uint8"
        }
      ],
      "name": "grantAccess",
      "outputs": [],
      "stateMutability": "nonpayable",
      "type": "function"
    },
    {
      "inputs": [
        {
          "internalType": "uint256",
          "name": "_paperId",
          "type": "uint256"
        },
        {
          "internalType": "address",
          "name": "_user",
          "type": "address"
        }
      ],
      "name": "getAccessLevel",
      "outputs": [
        {
          "internalType": "uint8",
          "name": "",
          "type": "uint8"
        }
      ],
      "stateMutability": "view",
      "type": "function",
      "constant": true
    }
  ],
  "bytecode": "0x608060405234801561001057600080fd5b50336000806101000a81548173ffffffffffffffffffffffffffffffffffffffff021916908373ffffffffffffffffffffffffffffffffffffffff16021790555061241c806100606000396000f3fe608060405234801561001057600080fd5b50600436106100b45760003560e01c80638da5cb5b116100715780638da5cb5b146101a8578063a1d62b1b146101c6578063a56c2cb9146101e2578063a87430ba14610200578063aa2bd53f14610231578063d6a0e17714610261576100b4565b806307993f04146100b95780633f1a39a0146100ee578063402c016e1461010c57806357f0b1381461013c5780635bb0c5d6146101585780635e775a2714610174575b600080fd5b6100d360048036038101906100ce919061131e565b61027d565b6040516100e596959493929190611537565b60405180910390f35b6100f66104da565b60405161010391906117aa565b60405180910390f35b610126600480360381019061012191906117f8565b610810565b6040516101339190611854565b60405180910390f35b610156600480360381019061015191906119d0565b610878565b005b610172600480360381019061016d9190611a3f565b6109fc565b005b61018e6004803603810190610189919061131e565b610ced565b60405161019f959493929190611a9b565b60405180910390f35b6101b0610e53565b6040516101bd9190611afc565b60405180910390f35b6101e060048036038101906101db9190611b17565b610e77565b005b6101ea611031565b6040516101f79190611b8f565b60405180910390f35b61021a60048036038101906102159190611baa565b611037565b604051610228929190611c4e565b60405180910390f35b61024b600480360381019061024691906117f8565b6110f0565b6040516102589190611854565b60405180910390f35b61027b60048036038101906102769190611c7e565b61111f565b005b60008060608060006060600060036000898152602001908152602001600020905080600001548160010160009054906101000a900473ffffffffffffffffffffffffffffffffffffffff1682600201836003018460040154856005018380546102e590611d00565b80601f016020809104026020016040519081016040528092919081815260200182805461031190611d00565b801561035e5780601f106103335761010080835404028352916020019161035e565b820191906000526020600020905b81548152906001019060200180831161034157829003601f168201915b5050505050935082805461037190611d00565b80601f016020809104026020016040519081016040528092919081815260200182805461039d90611d00565b80156103ea5780601f106103bf576101008083540402835291602001916103ea565b820191906000526020600020905b8154815290600101906020018083116103cd57829003601f168201915b5050505050925080805480602002602001604051908101604052809291908181526020016000905b828210156104be57838290600052602060002001805461043190611d00565b80601f016020809104026020016040519081016040528092919081815260200182805461045d90611d00565b80156104aa5780601f1061047f576101008083540402835291602001916104aa565b820191906000526020600020905b81548152906001019060200180831161048d57829003601f168201915b505050505081526020019060010190610412565b5050505090509650965096509650965096505091939550919395565b6060600060015467ffffffffffffffff8111156104fa576104f9611879565b5b60405190808252806020026020018201604052801561053357816020015b610520611288565b8152602001906001900390816105185790505b5090506000600190505b600154811161080857600360008281526020019081526020016000206040518060c0016040529081600082015481526020016001820160009054906101000a900473ffffffffffffffffffffffffffffffffffffffff1673ffffffffffffffffffffffffffffffffffffffff1673ffffffffffffffffffffffffffffffffffffffff1681526020016002820180546105d490611d00565b80601f016020809104026020016040519081016040528092919081815260200182805461060090611d00565b801561064d5780601f106106225761010080835404028352916020019161064d565b820191906000526020600020905b81548152906001019060200180831161063057829003601f168201915b5050505050815260200160038201805461066690611d00565b80601f016020809104026020016040519081016040528092919081815260200182805461069290611d00565b80156106df5780601f106106b4576101008083540402835291602001916106df565b820191906000526020600020905b8154815290600101906020018083116106c257829003601f168201915b505050505081526020016004820154815260200160058201805480602002602001604051908101604052809291908181526020016000905b828210156107c357838290600052602060002001805461073690611d00565b80601f016020809104026020016040519081016040528092919081815260200182805461076290611d00565b80156107af5780601f10610784576101008083540402835291602001916107af565b820191906000526020600020905b81548152906001019060200180831161079257829003601f168201915b505050505081526020019060010190610717565b5050505081525050826001836107d99190611d60565b815181106107ea576107e9611d94565b5b6020026020010181905250808061080090611dc3565b91505061053d565b508091505090565b60006004600084815260200190815260200160002060008373ffffffffffffffffffffffffffffffffffffffff1673ffffffffffffffffffffffffffffffffffffffff16815260200190815260200160002060009054906101000a900460ff16905092915050565b60008160ff1611801561088f575060038160ff1611155b6108ce576040517f08c379a00000000000000000000000000000000000000000000000000000000081526004016108c590611e57565b60405180910390fd5b60405180604001604052808260ff1660038111156108ef576108ee611bd7565b5b600381111561090157610900611bd7565b5b815260200183815250600260008573ffffffffffffffffffffffffffffffffffffffff1673ffffffffffffffffffffffffffffffffffffffff16815260200190815260200160002060008201518160000160006101000a81548160ff0219169083600381111561097457610973611bd7565b5b0217905550602082015181600101908161098e9190612023565b509050508273ffffffffffffffffffffffffffffffffffffffff167fc2e5d5da58bd71d1a2d14cdef02a4256d971b728088f8190d067ccfbae3bd73e838360ff1660038111156109e1576109e0611bd7565b5b6040516109ef9291906120f5565b60405180910390a2505050565b60026003811115610a1057610a0f611bd7565b5b600260003373ffffffffffffffffffffffffffffffffffffffff1673ffffffffffffffffffffffffffffffffffffffff16815260200190815260200160002060000160009054906101000a900460ff166003811115610a7257610a71611bd7565b5b1480610af05750600380811115610a8c57610a8b611bd7565b5b600260003373ffffffffffffffffffffffffffffffffffffffff1673ffffffffffffffffffffffffffffffffffffffff16815260200190815260200160002060000160009054906101000a900460ff166003811115610aee57610aed611bd7565b5b145b80610b6e575060016003811115610b0a57610b09611bd7565b5b600260003373ffffffffffffffffffffffffffffffffffffffff1673ffffffffffffffffffffffffffffffffffffffff16815260200190815260200160002060000160009054906101000a900460ff166003811115610b6c57610b6b611bd7565b5b145b610bad576040517f08c379a0000000000000000000000000000000000000000000000000000000008152600401610ba490612171565b60405180910390fd5b60026004600084815260200190815260200160002060003373ffffffffffffffffffffffffffffffffffffffff1673ffffffffffffffffffffffffffffffffffffffff16815260200190815260200160002060009054906101000a900460ff1660ff161015610c51576040517f08c379a0000000000000000000000000000000000000000000000000000000008152600401610c4890612203565b60405180910390fd5b6003600083815260200190815260200160002060050181908060018154018082558091505060019003906000526020600020016000909190919091509081610c999190612023565b503373ffffffffffffffffffffffffffffffffffffffff16827fbefee3e25ea1d938074fcd2bf513ab01a34183e049d64b3a50a7a534063c77a583604051610ce19190612223565b60405180910390a35050565b60036020528060005260406000206000915090508060000154908060010160009054906101000a900473ffffffffffffffffffffffffffffffffffffffff1690806002018054610d3c90611d00565b80601f0160208091040260200160405190810160405280929190818152602001828054610d6890611d00565b8015610db55780601f10610d8a57610100808354040283529160200191610db5565b820191906000526020600020905b815481529060010190602001808311610d9857829003601f168201915b505050505090806003018054610dca90611d00565b80601f0160208091040260200160405190810160405280929190818152602001828054610df690611d00565b8015610e435780601f10610e1857610100808354040283529160200191610e43565b820191906000526020600020905b815481529060010190602001808311610e2657829003601f168201915b5050505050908060040154905085565b60008054906101000a900473ffffffffffffffffffffffffffffffffffffffff1681565b60016003811115610e8b57610e8a611bd7565b5b600260003373ffffffffffffffffffffffffffffffffffffffff1673ffffffffffffffffffffffffffffffffffffffff16815260200190815260200160002060000160009054906101000a900460ff166003811115610eed57610eec611bd7565b5b14610f2d576040517f08c379a0000000000000000000000000000000000000000000000000000000008152600401610f2490612291565b60405180910390fd5b60016000815480929190610f4090611dc3565b9190505550600060036000600154815260200190815260200160002090506001548160000181905550338160010160006101000a81548173ffffffffffffffffffffffffffffffffffffffff021916908373ffffffffffffffffffffffffffffffffffffffff16021790555082816002019081610fbd9190612023565b5081816003019081610fcf9190612023565b504281600401819055503373ffffffffffffffffffffffffffffffffffffffff166001547ff3cfeab64dd4672f076e168dc99e5339937587a541ec8c7bbead85e4820c0ac185856040516110249291906122b1565b60405180910390a3505050565b60015481565b60026020528060005260406000206000915090508060000160009054906101000a900460ff169080600101805461106d90611d00565b80601f016020809104026020016040519081016040528092919081815260200182805461109990611d00565b80156110e65780601f106110bb576101008083540402835291602001916110e6565b820191906000526020600020905b8154815290600101906020018083116110c957829003601f168201915b5050505050905082565b60046020528160005260406000206020528060005260406000206000915091509054906101000a900460ff1681565b3373ffffffffffffffffffffffffffffffffffffffff166003600085815260200190815260200160002060010160009054906101000a900473ffffffffffffffffffffffffffffffffffffffff1673ffffffffffffffffffffffffffffffffffffffff16146111c3576040517f08c379a00000000000000000000000000000000000000000000000000000000081526004016111ba90612334565b60405180910390fd5b60018160ff16101580156111db575060038160ff1611155b61121a576040517f08c379a0000000000000000000000000000000000000000000000000000000008152600401611211906123c6565b60405180910390fd5b806004600085815260200190815260200160002060008473ffffffffffffffffffffffffffffffffffffffff1673ffffffffffffffffffffffffffffffffffffffff16815260200190815260200160002060006101000a81548160ff021916908360ff160217905550505050565b6040518060c0016040528060008152602001600073ffffffffffffffffffffffffffffffffffffffff168152602001606081526020016060815260200160008152602001606081525090565b6000604051905090565b600080fd5b600080fd5b6000819050919050565b6112fb816112e8565b811461130657600080fd5b50565b600081359050611318816112f2565b92915050565b600060208284031215611334576113336112de565b5b600061134284828501611309565b91505092915050565b611354816112e8565b82525050565b600073ffffffffffffffffffffffffffffffffffffffff82169050919050565b60006113858261135a565b9050919050565b6113958161137a565b82525050565b600081519050919050565b600082825260208201905092915050565b60005b838110156113d55780820151818401526020810190506113ba565b60008484015250505050565b6000601f19601f8301169050919050565b60006113fd8261139b565b61140781856113a6565b93506114178185602086016113b7565b611420816113e1565b840191505092915050565b600081519050919050565b600082825260208201905092915050565b6000819050602082019050919050565b600082825260208201905092915050565b60006114738261139b565b61147d8185611457565b935061148d8185602086016113b7565b611496816113e1565b840191505092915050565b60006114ad8383611468565b905092915050565b6000602082019050919050565b60006114cd8261142b565b6114d78185611436565b9350836020820285016114e985611447565b8060005b85811015611525578484038952815161150685826114a1565b9450611511836114b5565b925060208a019950506001810190506114ed565b50829750879550505050505092915050565b600060c08201905061154c600083018961134b565b611559602083018861138c565b818103604083015261156b81876113f2565b9050818103606083015261157f81866113f2565b905061158e608083018561134b565b81810360a08301526115a081846114c2565b9050979650505050505050565b600081519050919050565b600082825260208201905092915050565b6000819050602082019050919050565b6115e2816112e8565b82525050565b6115f18161137a565b82525050565b600082825260208201905092915050565b60006116138261142b565b61161d81856115f7565b93508360208202850161162f85611447565b8060005b8581101561166b578484038952815161164c85826114a1565b9450611657836114b5565b925060208a01995050600181019050611633565b50829750879550505050505092915050565b600060c08301600083015161169560008601826115d9565b5060208301516116a860208601826115e8565b50604083015184820360408601526116c08282611468565b915050606083015184820360608601526116da8282611468565b91505060808301516116ef60808601826115d9565b5060a083015184820360a08601526117078282611608565b9150508091505092915050565b6000611720838361167d565b905092915050565b6000602082019050919050565b6000611740826115ad565b61174a81856115b8565b93508360208202850161175c856115c9565b8060005b8581101561179857848403895281516117798582611714565b945061178483611728565b925060208a01995050600181019050611760565b50829750879550505050505092915050565b600060208201905081810360008301526117c48184611735565b905092915050565b6117d58161137a565b81146117e057600080fd5b50565b6000813590506117f2816117cc565b92915050565b6000806040838503121561180f5761180e6112de565b5b600061181d85828601611309565b925050602061182e858286016117e3565b9150509250929050565b600060ff82169050919050565b61184e81611838565b82525050565b60006020820190506118696000830184611845565b92915050565b600080fd5b600080fd5b7f4e487b7100000000000000000000000000000000000000000000000000000000600052604160045260246000fd5b6118b1826113e1565b810181811067ffffffffffffffff821117156118d0576118cf611879565b5b80604052505050565b60006118e36112d4565b90506118ef82826118a8565b919050565b600067ffffffffffffffff82111561190f5761190e611879565b5b611918826113e1565b9050602081019050919050565b82818337600083830152505050565b6000611947611942846118f4565b6118d9565b90508281526020810184848401111561196357611962611874565b5b61196e848285611925565b509392505050565b600082601f83011261198b5761198a61186f565b5b813561199b848260208601611934565b91505092915050565b6119ad81611838565b81146119b857600080fd5b50565b6000813590506119ca816119a4565b92915050565b6000806000606084860312156119e9576119e86112de565b5b60006119f7868287016117e3565b935050602084013567ffffffffffffffff811115611a1857611a176112e3565b5b611a2486828701611976565b9250506040611a35868287016119bb565b9150509250925092565b60008060408385031215611a5657611a556112de565b5b6000611a6485828601611309565b925050602083013567ffffffffffffffff811115611a8557611a846112e3565b5b611a9185828601611976565b9150509250929050565b600060a082019050611ab0600083018861134b565b611abd602083018761138c565b8181036040830152611acf81866113f2565b90508181036060830152611ae381856113f2565b9050611af2608083018461134b565b9695505050505050565b6000602082019050611b11600083018461138c565b92915050565b60008060408385031215611b2e57611b2d6112de565b5b600083013567ffffffffffffffff811115611b4c57611b4b6112e3565b5b611b5885828601611976565b925050602083013567ffffffffffffffff811115611b7957611b786112e3565b5b611b8585828601611976565b9150509250929050565b6000602082019050611ba4600083018461134b565b92915050565b600060208284031215611bc057611bbf6112de565b5b6000611bce848285016117e3565b91505092915050565b7f4e487b7100000000000000000000000000000000000000000000000000000000600052602160045260246000fd5b60048110611c1757611c16611bd7565b5b50565b6000819050611c2882611c06565b919050565b6000611c3882611c1a565b9050919050565b611c4881611c2d565b82525050565b6000604082019050611c636000830185611c3f565b8181036020830152611c7581846113f2565b90509392505050565b600080600060608486031215611c9757611c966112de565b5b6000611ca586828701611309565b9350506020611cb6868287016117e3565b9250506040611cc7868287016119bb565b9150509250925092565b7f4e487b7100000000000000000000000000000000000000000000000000000000600052602260045260246000fd5b60006002820490506001821680611d1857607f821691505b602082108103611d2b57611d2a611cd1565b5b50919050565b7f4e487b7100000000000000000000000000000000000000000000000000000000600052601160045260246000fd5b6000611d6b826112e8565b9150611d76836112e8565b9250828203905081811115611d8e57611d8d611d31565b5b92915050565b7f4e487b7100000000000000000000000000000000000000000000000000000000600052603260045260246000fd5b6000611dce826112e8565b91507fffffffffffffffffffffffffffffffffffffffffffffffffffffffffffffffff8203611e0057611dff611d31565b5b600182019050919050565b7f496e76616c696420726f6c650000000000000000000000000000000000000000600082015250565b6000611e41600c836113a6565b9150611e4c82611e0b565b602082019050919050565b60006020820190508181036000830152611e7081611e34565b9050919050565b60008190508160005260206000209050919050565b60006020601f8301049050919050565b600082821b905092915050565b600060088302611ed97fffffffffffffffffffffffffffffffffffffffffffffffffffffffffffffffff82611e9c565b611ee38683611e9c565b95508019841693508086168417925050509392505050565b6000819050919050565b6000611f20611f1b611f16846112e8565b611efb565b6112e8565b9050919050565b6000819050919050565b611f3a83611f05565b611f4e611f4682611f27565b848454611ea9565b825550505050565b600090565b611f63611f56565b611f6e818484611f31565b505050565b5b81811015611f9257611f87600082611f5b565b600181019050611f74565b5050565b601f821115611fd757611fa881611e77565b611fb184611e8c565b81016020851015611fc0578190505b611fd4611fcc85611e8c565b830182611f73565b50505b505050565b600082821c905092915050565b6000611ffa60001984600802611fdc565b1980831691505092915050565b60006120138383611fe9565b9150826002028217905092915050565b61202c8261139b565b67ffffffffffffffff81111561204557612044611879565b5b61204f8254611d00565b61205a828285611f96565b600060209050601f83116001811461208d576000841561207b578287015190505b6120858582612007565b8655506120ed565b601f19841661209b86611e77565b60005b828110156120c35784890151825560018201915060208501945060208101905061209e565b868310156120e057848901516120dc601f891682611fe9565b8355505b6001600288020188555050505b505050505050565b6000604082019050818103600083015261210f81856113f2565b905061211e6020830184611c3f565b9392505050565b7f4e6f7420616c6c6f77656420746f207265766965770000000000000000000000600082015250565b600061215b6015836113a6565b915061216682612125565b602082019050919050565b6000602082019050818103600083015261218a8161214e565b9050919050565b7f496e73756666696369656e7420616363657373206c6576656c20746f20636f6d60008201527f6d656e7400000000000000000000000000000000000000000000000000000000602082015250565b60006121ed6024836113a6565b91506121f882612191565b604082019050919050565b6000602082019050818103600083015261221c816121e0565b9050919050565b6000602082019050818103600083015261223d81846113f2565b905092915050565b7f4f6e6c7920617574686f72732063616e207375626d6974207061706572730000600082015250565b600061227b601e836113a6565b915061228682612245565b602082019050919050565b600060208201905081810360008301526122aa8161226e565b9050919050565b600060408201905081810360008301526122cb81856113f2565b905081810360208301526122df81846113f2565b90509392505050565b7f4f6e6c7920617574686f722063616e206772616e742061636365737300000000600082015250565b600061231e601c836113a6565b9150612329826122e8565b602082019050919050565b6000602082019050818103600083015261234d81612311565b9050919050565b7f416363657373206d7573742062652031202856696577292c20322028436f6d6d60008201527f656e74292c206f72203320284564697429000000000000000000000000000000602082015250565b60006123b06031836113a6565b91506123bb82612354565b604082019050919050565b600060208201905081810360008301526123df816123a3565b905091905056fea26469706673582212200c186defc50fa6df68b35712332b33e8d0747d4d5d9efde07e3cdcd3e4174fd564736f6c63430008130033",
  "immutableReferences": {},
  "source": "// SPDX-License-Identifier: MIT\r\npragma solidity ^0.8.0;\r\n\r\ncontract ResearchPortal {\r\n\r\n    enum Role { Unregistered, Author, Faculty, Reviewer }\r\n    struct User {\r\n        Role role;\r\n        string name;\r\n    }\r\n\r\n    struct Paper {\r\n        uint256 paperId;\r\n        address author;\r\n        string title;\r\n        string ipfsHash;\r\n        uint256 timestamp;\r\n        string[] reviews;\r\n    }\r\n\r\n    address public owner;\r\n    uint256 public paperCount;\r\n    mapping(address => User) public users;\r\n    mapping(uint256 => Paper) public papers;\r\n\r\n    // NEW: Per-paper access control: paperId -> userAddress -> access level (1=View, 2=Comment, 3=Edit)\r\n    mapping(uint256 => mapping(address => uint8)) public paperAccess;\r\n\r\n    // ==== Events ====\r\n    event UserRegistered(address indexed user, string name, Role role);\r\n    event PaperSubmitted(uint256 indexed paperId, address indexed author, string title, string ipfsHash);\r\n    event ReviewAdded(uint256 indexed paperId, address indexed reviewer, string comment);\r\n\r\n    constructor() {\r\n        owner = msg.sender;\r\n    }\r\n\r\n    // ==== User Registration ====\r\n    function register(address _user, string memory _name, uint8 _role) public {\r\n        require(_role > 0 && _role <= 3, \"Invalid role\");\r\n        users[_user] = User(Role(_role), _name);\r\n        emit UserRegistered(_user, _name, Role(_role));\r\n    }\r\n\r\n    // ==== Submit Paper ====\r\n    function submitPaper(string memory _title, string memory _ipfsHash) public {\r\n        require(users[msg.sender].role == Role.Author, \"Only authors can submit papers\");\r\n        paperCount++;\r\n        Paper storage newPaper = papers[paperCount];\r\n        newPaper.paperId = paperCount;\r\n        newPaper.author = msg.sender;\r\n        newPaper.title = _title;\r\n        newPaper.ipfsHash = _ipfsHash;\r\n        newPaper.timestamp = block.timestamp;\r\n\r\n        emit PaperSubmitted(paperCount, msg.sender, _title, _ipfsHash);\r\n    }\r\n\r\n    // ==== Add Review ====\r\n    function addReview(uint256 _paperId, string memory comment) public {\r\n    // Allow authors, faculty, and reviewers to add reviews\r\n    require(users[msg.sender].role == Role.Faculty || users[msg.sender].role == Role.Reviewer || users[msg.sender].role == Role.Author, \"Not allowed to review\");\r\n\r\n    // Only allow users with access level >= 2 (Comment or higher) to add a review\r\n    require(paperAccess[_paperId][msg.sender] >= 2, \"Insufficient access level to comment\");\r\n\r\n    papers[_paperId].reviews.push(comment);\r\n    emit ReviewAdded(_paperId, msg.sender, comment);\r\n}\r\n\r\n\r\n    // ==== Get Single Paper ====\r\n    function getPaper(uint256 _paperId) public view returns (\r\n        uint256,\r\n        address,\r\n        string memory,\r\n        string memory,\r\n        uint256,\r\n        string[] memory\r\n    ) {\r\n        Paper storage p = papers[_paperId];\r\n        return (\r\n            p.paperId,\r\n            p.author,\r\n            p.title,\r\n            p.ipfsHash,\r\n            p.timestamp,\r\n            p.reviews\r\n        );\r\n    }\r\n\r\n    // ==== Get All Papers (optional frontend use) ====\r\n    function getAllPapers() public view returns (Paper[] memory) {\r\n        Paper[] memory all = new Paper[](paperCount);\r\n        for (uint256 i = 1; i <= paperCount; i++) {\r\n            all[i - 1] = papers[i];\r\n        }\r\n        return all;\r\n    }\r\n\r\n    // ==== NEW: Grant Access to Ethereum Addresses ====\r\n    function grantAccess(uint256 _paperId, address _user, uint8 _accessLevel) public {\r\n        require(papers[_paperId].author == msg.sender, \"Only author can grant access\");\r\n        require(_accessLevel >= 1 && _accessLevel <= 3, \"Access must be 1 (View), 2 (Comment), or 3 (Edit)\");\r\n        paperAccess[_paperId][_user] = _accessLevel;\r\n    }\r\n\r\n    // ==== Check Access Level for Paper ====\r\n    function getAccessLevel(uint256 _paperId, address _user) public view returns (uint8) {\r\n        return paperAccess[_paperId][_user];\r\n    }\r\n}\r\n",
  "sourcePath": "E:\\DSNewFront\\contracts\\ResearchPortal.sol",
  "compiler": {
    "name": "solc",
    "version": "0.8.19+commit.7dd6d404.Emscripten.clang"
  },
  "schemaVersion": "3.4.16",
  "updatedAt": "2025-05-12T16:08:29.556Z",
  "networkType": "ethereum",
  "devdoc": {
    "kind": "dev",
    "methods": {},
    "version": 1
  },
  "userdoc": {
    "kind": "user",
    "methods": {},
    "version": 1
  }
}