{
  "contractName": "ScholarChain",
  "abi": [
    {
      "inputs": [],
      "stateMutability": "nonpayable",
      "type": "constructor"
    },
    {
      "anonymous": false,
      "inputs": [
        {
          "indexed": true,
          "internalType": "uint256",
          "name": "paperId",
          "type": "uint256"
        },
        {
          "indexed": true,
          "internalType": "address",
          "name": "author",
          "type": "address"
        },
        {
          "indexed": false,
          "internalType": "string",
          "name": "title",
          "type": "string"
        },
        {
          "indexed": false,
          "internalType": "string",
          "name": "ipfsHash",
          "type": "string"
        }
      ],
      "name": "PaperSubmitted",
      "type": "event"
    },
    {
      "anonymous": false,
      "inputs": [
        {
          "indexed": true,
          "internalType": "uint256",
          "name": "paperId",
          "type": "uint256"
        },
        {
          "indexed": true,
          "internalType": "address",
          "name": "reviewer",
          "type": "address"
        },
        {
          "indexed": false,
          "internalType": "string",
          "name": "comment",
          "type": "string"
        }
      ],
      "name": "ReviewAdded",
      "type": "event"
    },
    {
      "anonymous": false,
      "inputs": [
        {
          "indexed": true,
          "internalType": "address",
          "name": "user",
          "type": "address"
        },
        {
          "indexed": false,
          "internalType": "string",
          "name": "name",
          "type": "string"
        },
        {
          "indexed": false,
          "internalType": "enum ScholarChain.Role",
          "name": "role",
          "type": "uint8"
        }
      ],
      "name": "UserRegistered",
      "type": "event"
    },
    {
      "inputs": [],
      "name": "owner",
      "outputs": [
        {
          "internalType": "address",
          "name": "",
          "type": "address"
        }
      ],
      "stateMutability": "view",
      "type": "function"
    },
    {
      "inputs": [],
      "name": "paperCount",
      "outputs": [
        {
          "internalType": "uint256",
          "name": "",
          "type": "uint256"
        }
      ],
      "stateMutability": "view",
      "type": "function"
    },
    {
      "inputs": [
        {
          "internalType": "uint256",
          "name": "",
          "type": "uint256"
        }
      ],
      "name": "papers",
      "outputs": [
        {
          "internalType": "uint256",
          "name": "paperId",
          "type": "uint256"
        },
        {
          "internalType": "address",
          "name": "author",
          "type": "address"
        },
        {
          "internalType": "string",
          "name": "title",
          "type": "string"
        },
        {
          "internalType": "string",
          "name": "ipfsHash",
          "type": "string"
        },
        {
          "internalType": "uint256",
          "name": "timestamp",
          "type": "uint256"
        }
      ],
      "stateMutability": "view",
      "type": "function"
    },
    {
      "inputs": [
        {
          "internalType": "address",
          "name": "",
          "type": "address"
        }
      ],
      "name": "users",
      "outputs": [
        {
          "internalType": "enum ScholarChain.Role",
          "name": "role",
          "type": "uint8"
        },
        {
          "internalType": "string",
          "name": "name",
          "type": "string"
        }
      ],
      "stateMutability": "view",
      "type": "function"
    },
    {
      "inputs": [
        {
          "internalType": "address",
          "name": "_user",
          "type": "address"
        },
        {
          "internalType": "string",
          "name": "_name",
          "type": "string"
        },
        {
          "internalType": "uint8",
          "name": "_role",
          "type": "uint8"
        }
      ],
      "name": "register",
      "outputs": [],
      "stateMutability": "nonpayable",
      "type": "function"
    },
    {
      "inputs": [
        {
          "internalType": "string",
          "name": "_title",
          "type": "string"
        },
        {
          "internalType": "string",
          "name": "_ipfsHash",
          "type": "string"
        }
      ],
      "name": "submitPaper",
      "outputs": [],
      "stateMutability": "nonpayable",
      "type": "function"
    },
    {
      "inputs": [
        {
          "internalType": "uint256",
          "name": "_paperId",
          "type": "uint256"
        },
        {
          "internalType": "string",
          "name": "_comment",
          "type": "string"
        }
      ],
      "name": "addReview",
      "outputs": [],
      "stateMutability": "nonpayable",
      "type": "function"
    },
    {
      "inputs": [],
      "name": "getAllPapers",
      "outputs": [
        {
          "components": [
            {
              "internalType": "uint256",
              "name": "paperId",
              "type": "uint256"
            },
            {
              "internalType": "address",
              "name": "author",
              "type": "address"
            },
            {
              "internalType": "string",
              "name": "title",
              "type": "string"
            },
            {
              "internalType": "string",
              "name": "ipfsHash",
              "type": "string"
            },
            {
              "internalType": "uint256",
              "name": "timestamp",
              "type": "uint256"
            },
            {
              "internalType": "string[]",
              "name": "reviews",
              "type": "string[]"
            }
          ],
          "internalType": "struct ScholarChain.Paper[]",
          "name": "",
          "type": "tuple[]"
        }
      ],
      "stateMutability": "view",
      "type": "function"
    },
    {
      "inputs": [
        {
          "internalType": "uint256",
          "name": "_paperId",
          "type": "uint256"
        }
      ],
      "name": "getPaper",
      "outputs": [
        {
          "internalType": "uint256",
          "name": "",
          "type": "uint256"
        },
        {
          "internalType": "address",
          "name": "",
          "type": "address"
        },
        {
          "internalType": "string",
          "name": "",
          "type": "string"
        },
        {
          "internalType": "string",
          "name": "",
          "type": "string"
        },
        {
          "internalType": "uint256",
          "name": "",
          "type": "uint256"
        },
        {
          "internalType": "string[]",
          "name": "",
          "type": "string[]"
        }
      ],
      "stateMutability": "view",
      "type": "function"
    }
  ],
  "bytecode": "0x608060405234801561001057600080fd5b50336000806101000a81548173ffffffffffffffffffffffffffffffffffffffff021916908373ffffffffffffffffffffffffffffffffffffffff160217905550612452806100606000396000f3fe608060405234801561001057600080fd5b50600436106100935760003560e01c80635e775a27116100665780635e775a27146101235780638da5cb5b14610157578063a1d62b1b14610175578063a56c2cb914610191578063a87430ba146101af57610093565b806307993f04146100985780633f1a39a0146100cd57806357f0b138146100eb5780635bb0c5d614610107575b600080fd5b6100b260048036038101906100ad91906113f1565b6101e0565b6040516100c49695949392919061160a565b60405180910390f35b6100d561048e565b6040516100e2919061187d565b60405180910390f35b61010560048036038101906101009190611a39565b6107c4565b005b610121600480360381019061011c9190611aa8565b610a81565b005b61013d600480360381019061013891906113f1565b610d0e565b60405161014e959493929190611b04565b60405180910390f35b61015f610e74565b60405161016c9190611b65565b60405180910390f35b61018f600480360381019061018a9190611b80565b610e98565b005b6101996111c2565b6040516101a69190611bf8565b60405180910390f35b6101c960048036038101906101c49190611c13565b6111c8565b6040516101d7929190611cb7565b60405180910390f35b600080606080600060606000871180156101fc57506001548711155b61023b576040517f08c379a000000000000000000000000000000000000000000000000000000000815260040161023290611d33565b60405180910390fd5b600060036000898152602001908152602001600020905080600001548160010160009054906101000a900473ffffffffffffffffffffffffffffffffffffffff16826002018360030184600401548560050183805461029990611d82565b80601f01602080910402602001604051908101604052809291908181526020018280546102c590611d82565b80156103125780601f106102e757610100808354040283529160200191610312565b820191906000526020600020905b8154815290600101906020018083116102f557829003601f168201915b5050505050935082805461032590611d82565b80601f016020809104026020016040519081016040528092919081815260200182805461035190611d82565b801561039e5780601f106103735761010080835404028352916020019161039e565b820191906000526020600020905b81548152906001019060200180831161038157829003601f168201915b5050505050925080805480602002602001604051908101604052809291908181526020016000905b828210156104725783829060005260206000200180546103e590611d82565b80601f016020809104026020016040519081016040528092919081815260200182805461041190611d82565b801561045e5780601f106104335761010080835404028352916020019161045e565b820191906000526020600020905b81548152906001019060200180831161044157829003601f168201915b5050505050815260200190600101906103c6565b5050505090509650965096509650965096505091939550919395565b6060600060015467ffffffffffffffff8111156104ae576104ad6118d5565b5b6040519080825280602002602001820160405280156104e757816020015b6104d4611281565b8152602001906001900390816104cc5790505b5090506000600190505b60015481116107bc57600360008281526020019081526020016000206040518060c0016040529081600082015481526020016001820160009054906101000a900473ffffffffffffffffffffffffffffffffffffffff1673ffffffffffffffffffffffffffffffffffffffff1673ffffffffffffffffffffffffffffffffffffffff16815260200160028201805461058890611d82565b80601f01602080910402602001604051908101604052809291908181526020018280546105b490611d82565b80156106015780601f106105d657610100808354040283529160200191610601565b820191906000526020600020905b8154815290600101906020018083116105e457829003601f168201915b5050505050815260200160038201805461061a90611d82565b80601f016020809104026020016040519081016040528092919081815260200182805461064690611d82565b80156106935780601f1061066857610100808354040283529160200191610693565b820191906000526020600020905b81548152906001019060200180831161067657829003601f168201915b505050505081526020016004820154815260200160058201805480602002602001604051908101604052809291908181526020016000905b828210156107775783829060005260206000200180546106ea90611d82565b80601f016020809104026020016040519081016040528092919081815260200182805461071690611d82565b80156107635780601f1061073857610100808354040283529160200191610763565b820191906000526020600020905b81548152906001019060200180831161074657829003601f168201915b5050505050815260200190600101906106cb565b50505050815250508260018361078d9190611de2565b8151811061079e5761079d611e16565b5b602002602001018190525080806107b490611e45565b9150506104f1565b508091505090565b600073ffffffffffffffffffffffffffffffffffffffff168373ffffffffffffffffffffffffffffffffffffffff1603610833576040517f08c379a000000000000000000000000000000000000000000000000000000000815260040161082a90611ed9565b60405180910390fd5b6000600381111561084757610846611c40565b5b600260008573ffffffffffffffffffffffffffffffffffffffff1673ffffffffffffffffffffffffffffffffffffffff16815260200190815260200160002060000160009054906101000a900460ff1660038111156108a9576108a8611c40565b5b146108e9576040517f08c379a00000000000000000000000000000000000000000000000000000000081526004016108e090611f45565b60405180910390fd5b60008160ff16118015610914575060038081111561090a57610909611c40565b5b60ff168160ff1611155b610953576040517f08c379a000000000000000000000000000000000000000000000000000000000815260040161094a90611fb1565b60405180910390fd5b60405180604001604052808260ff16600381111561097457610973611c40565b5b600381111561098657610985611c40565b5b815260200183815250600260008573ffffffffffffffffffffffffffffffffffffffff1673ffffffffffffffffffffffffffffffffffffffff16815260200190815260200160002060008201518160000160006101000a81548160ff021916908360038111156109f9576109f8611c40565b5b02179055506020820151816001019081610a13919061217d565b509050508273ffffffffffffffffffffffffffffffffffffffff167fc2e5d5da58bd71d1a2d14cdef02a4256d971b728088f8190d067ccfbae3bd73e838360ff166003811115610a6657610a65611c40565b5b604051610a7492919061224f565b60405180910390a2505050565b60006003811115610a9557610a94611c40565b5b600260003373ffffffffffffffffffffffffffffffffffffffff1673ffffffffffffffffffffffffffffffffffffffff16815260200190815260200160002060000160009054906101000a900460ff166003811115610af757610af6611c40565b5b03610b37576040517f08c379a0000000000000000000000000000000000000000000000000000000008152600401610b2e906122cb565b60405180910390fd5b600082118015610b4957506001548211155b610b88576040517f08c379a0000000000000000000000000000000000000000000000000000000008152600401610b7f90611d33565b60405180910390fd5b6000600260003373ffffffffffffffffffffffffffffffffffffffff1673ffffffffffffffffffffffffffffffffffffffff16815260200190815260200160002060000160009054906101000a900460ff16905060026003811115610bf057610bef611c40565b5b816003811115610c0357610c02611c40565b5b1480610c325750600380811115610c1d57610c1c611c40565b5b816003811115610c3057610c2f611c40565b5b145b610c71576040517f08c379a0000000000000000000000000000000000000000000000000000000008152600401610c6890612337565b60405180910390fd5b6003600084815260200190815260200160002060050182908060018154018082558091505060019003906000526020600020016000909190919091509081610cb9919061217d565b503373ffffffffffffffffffffffffffffffffffffffff16837fbefee3e25ea1d938074fcd2bf513ab01a34183e049d64b3a50a7a534063c77a584604051610d019190612357565b60405180910390a3505050565b60036020528060005260406000206000915090508060000154908060010160009054906101000a900473ffffffffffffffffffffffffffffffffffffffff1690806002018054610d5d90611d82565b80601f0160208091040260200160405190810160405280929190818152602001828054610d8990611d82565b8015610dd65780601f10610dab57610100808354040283529160200191610dd6565b820191906000526020600020905b815481529060010190602001808311610db957829003601f168201915b505050505090806003018054610deb90611d82565b80601f0160208091040260200160405190810160405280929190818152602001828054610e1790611d82565b8015610e645780601f10610e3957610100808354040283529160200191610e64565b820191906000526020600020905b815481529060010190602001808311610e4757829003601f168201915b5050505050908060040154905085565b60008054906101000a900473ffffffffffffffffffffffffffffffffffffffff1681565b60006003811115610eac57610eab611c40565b5b600260003373ffffffffffffffffffffffffffffffffffffffff1673ffffffffffffffffffffffffffffffffffffffff16815260200190815260200160002060000160009054906101000a900460ff166003811115610f0e57610f0d611c40565b5b03610f4e576040517f08c379a0000000000000000000000000000000000000000000000000000000008152600401610f45906122cb565b60405180910390fd5b60016003811115610f6257610f61611c40565b5b600260003373ffffffffffffffffffffffffffffffffffffffff1673ffffffffffffffffffffffffffffffffffffffff16815260200190815260200160002060000160009054906101000a900460ff166003811115610fc457610fc3611c40565b5b14611004576040517f08c379a0000000000000000000000000000000000000000000000000000000008152600401610ffb906123c5565b60405180910390fd5b6001600081548092919061101790611e45565b91905055506040518060c0016040528060015481526020013373ffffffffffffffffffffffffffffffffffffffff168152602001838152602001828152602001428152602001600067ffffffffffffffff811115611078576110776118d5565b5b6040519080825280602002602001820160405280156110ab57816020015b60608152602001906001900390816110965790505b508152506003600060015481526020019081526020016000206000820151816000015560208201518160010160006101000a81548173ffffffffffffffffffffffffffffffffffffffff021916908373ffffffffffffffffffffffffffffffffffffffff160217905550604082015181600201908161112a919061217d565b506060820151816003019081611140919061217d565b506080820151816004015560a08201518160050190805190602001906111679291906112cd565b509050503373ffffffffffffffffffffffffffffffffffffffff166001547ff3cfeab64dd4672f076e168dc99e5339937587a541ec8c7bbead85e4820c0ac184846040516111b69291906123e5565b60405180910390a35050565b60015481565b60026020528060005260406000206000915090508060000160009054906101000a900460ff16908060010180546111fe90611d82565b80601f016020809104026020016040519081016040528092919081815260200182805461122a90611d82565b80156112775780601f1061124c57610100808354040283529160200191611277565b820191906000526020600020905b81548152906001019060200180831161125a57829003601f168201915b5050505050905082565b6040518060c0016040528060008152602001600073ffffffffffffffffffffffffffffffffffffffff168152602001606081526020016060815260200160008152602001606081525090565b828054828255906000526020600020908101928215611315579160200282015b82811115611314578251829081611304919061217d565b50916020019190600101906112ed565b5b5090506113229190611326565b5090565b5b80821115611346576000818161133d919061134a565b50600101611327565b5090565b50805461135690611d82565b6000825580601f106113685750611387565b601f016020900490600052602060002090810190611386919061138a565b5b50565b5b808211156113a357600081600090555060010161138b565b5090565b6000604051905090565b600080fd5b600080fd5b6000819050919050565b6113ce816113bb565b81146113d957600080fd5b50565b6000813590506113eb816113c5565b92915050565b600060208284031215611407576114066113b1565b5b6000611415848285016113dc565b91505092915050565b611427816113bb565b82525050565b600073ffffffffffffffffffffffffffffffffffffffff82169050919050565b60006114588261142d565b9050919050565b6114688161144d565b82525050565b600081519050919050565b600082825260208201905092915050565b60005b838110156114a857808201518184015260208101905061148d565b60008484015250505050565b6000601f19601f8301169050919050565b60006114d08261146e565b6114da8185611479565b93506114ea81856020860161148a565b6114f3816114b4565b840191505092915050565b600081519050919050565b600082825260208201905092915050565b6000819050602082019050919050565b600082825260208201905092915050565b60006115468261146e565b611550818561152a565b935061156081856020860161148a565b611569816114b4565b840191505092915050565b6000611580838361153b565b905092915050565b6000602082019050919050565b60006115a0826114fe565b6115aa8185611509565b9350836020820285016115bc8561151a565b8060005b858110156115f857848403895281516115d98582611574565b94506115e483611588565b925060208a019950506001810190506115c0565b50829750879550505050505092915050565b600060c08201905061161f600083018961141e565b61162c602083018861145f565b818103604083015261163e81876114c5565b9050818103606083015261165281866114c5565b9050611661608083018561141e565b81810360a08301526116738184611595565b9050979650505050505050565b600081519050919050565b600082825260208201905092915050565b6000819050602082019050919050565b6116b5816113bb565b82525050565b6116c48161144d565b82525050565b600082825260208201905092915050565b60006116e6826114fe565b6116f081856116ca565b9350836020820285016117028561151a565b8060005b8581101561173e578484038952815161171f8582611574565b945061172a83611588565b925060208a01995050600181019050611706565b50829750879550505050505092915050565b600060c08301600083015161176860008601826116ac565b50602083015161177b60208601826116bb565b5060408301518482036040860152611793828261153b565b915050606083015184820360608601526117ad828261153b565b91505060808301516117c260808601826116ac565b5060a083015184820360a08601526117da82826116db565b9150508091505092915050565b60006117f38383611750565b905092915050565b6000602082019050919050565b600061181382611680565b61181d818561168b565b93508360208202850161182f8561169c565b8060005b8581101561186b578484038952815161184c85826117e7565b9450611857836117fb565b925060208a01995050600181019050611833565b50829750879550505050505092915050565b600060208201905081810360008301526118978184611808565b905092915050565b6118a88161144d565b81146118b357600080fd5b50565b6000813590506118c58161189f565b92915050565b600080fd5b600080fd5b7f4e487b7100000000000000000000000000000000000000000000000000000000600052604160045260246000fd5b61190d826114b4565b810181811067ffffffffffffffff8211171561192c5761192b6118d5565b5b80604052505050565b600061193f6113a7565b905061194b8282611904565b919050565b600067ffffffffffffffff82111561196b5761196a6118d5565b5b611974826114b4565b9050602081019050919050565b82818337600083830152505050565b60006119a361199e84611950565b611935565b9050828152602081018484840111156119bf576119be6118d0565b5b6119ca848285611981565b509392505050565b600082601f8301126119e7576119e66118cb565b5b81356119f7848260208601611990565b91505092915050565b600060ff82169050919050565b611a1681611a00565b8114611a2157600080fd5b50565b600081359050611a3381611a0d565b92915050565b600080600060608486031215611a5257611a516113b1565b5b6000611a60868287016118b6565b935050602084013567ffffffffffffffff811115611a8157611a806113b6565b5b611a8d868287016119d2565b9250506040611a9e86828701611a24565b9150509250925092565b60008060408385031215611abf57611abe6113b1565b5b6000611acd858286016113dc565b925050602083013567ffffffffffffffff811115611aee57611aed6113b6565b5b611afa858286016119d2565b9150509250929050565b600060a082019050611b19600083018861141e565b611b26602083018761145f565b8181036040830152611b3881866114c5565b90508181036060830152611b4c81856114c5565b9050611b5b608083018461141e565b9695505050505050565b6000602082019050611b7a600083018461145f565b92915050565b60008060408385031215611b9757611b966113b1565b5b600083013567ffffffffffffffff811115611bb557611bb46113b6565b5b611bc1858286016119d2565b925050602083013567ffffffffffffffff811115611be257611be16113b6565b5b611bee858286016119d2565b9150509250929050565b6000602082019050611c0d600083018461141e565b92915050565b600060208284031215611c2957611c286113b1565b5b6000611c37848285016118b6565b91505092915050565b7f4e487b7100000000000000000000000000000000000000000000000000000000600052602160045260246000fd5b60048110611c8057611c7f611c40565b5b50565b6000819050611c9182611c6f565b919050565b6000611ca182611c83565b9050919050565b611cb181611c96565b82525050565b6000604082019050611ccc6000830185611ca8565b8181036020830152611cde81846114c5565b90509392505050565b7f496e76616c696420706170657220494400000000000000000000000000000000600082015250565b6000611d1d601083611479565b9150611d2882611ce7565b602082019050919050565b60006020820190508181036000830152611d4c81611d10565b9050919050565b7f4e487b7100000000000000000000000000000000000000000000000000000000600052602260045260246000fd5b60006002820490506001821680611d9a57607f821691505b602082108103611dad57611dac611d53565b5b50919050565b7f4e487b7100000000000000000000000000000000000000000000000000000000600052601160045260246000fd5b6000611ded826113bb565b9150611df8836113bb565b9250828203905081811115611e1057611e0f611db3565b5b92915050565b7f4e487b7100000000000000000000000000000000000000000000000000000000600052603260045260246000fd5b6000611e50826113bb565b91507fffffffffffffffffffffffffffffffffffffffffffffffffffffffffffffffff8203611e8257611e81611db3565b5b600182019050919050565b7f496e76616c696420616464726573730000000000000000000000000000000000600082015250565b6000611ec3600f83611479565b9150611ece82611e8d565b602082019050919050565b60006020820190508181036000830152611ef281611eb6565b9050919050565b7f5573657220616c72656164792072656769737465726564000000000000000000600082015250565b6000611f2f601783611479565b9150611f3a82611ef9565b602082019050919050565b60006020820190508181036000830152611f5e81611f22565b9050919050565b7f496e76616c696420726f6c650000000000000000000000000000000000000000600082015250565b6000611f9b600c83611479565b9150611fa682611f65565b602082019050919050565b60006020820190508181036000830152611fca81611f8e565b9050919050565b60008190508160005260206000209050919050565b60006020601f8301049050919050565b600082821b905092915050565b6000600883026120337fffffffffffffffffffffffffffffffffffffffffffffffffffffffffffffffff82611ff6565b61203d8683611ff6565b95508019841693508086168417925050509392505050565b6000819050919050565b600061207a612075612070846113bb565b612055565b6113bb565b9050919050565b6000819050919050565b6120948361205f565b6120a86120a082612081565b848454612003565b825550505050565b600090565b6120bd6120b0565b6120c881848461208b565b505050565b5b818110156120ec576120e16000826120b5565b6001810190506120ce565b5050565b601f8211156121315761210281611fd1565b61210b84611fe6565b8101602085101561211a578190505b61212e61212685611fe6565b8301826120cd565b50505b505050565b600082821c905092915050565b600061215460001984600802612136565b1980831691505092915050565b600061216d8383612143565b9150826002028217905092915050565b6121868261146e565b67ffffffffffffffff81111561219f5761219e6118d5565b5b6121a98254611d82565b6121b48282856120f0565b600060209050601f8311600181146121e757600084156121d5578287015190505b6121df8582612161565b865550612247565b601f1984166121f586611fd1565b60005b8281101561221d578489015182556001820191506020850194506020810190506121f8565b8683101561223a5784890151612236601f891682612143565b8355505b6001600288020188555050505b505050505050565b6000604082019050818103600083015261226981856114c5565b90506122786020830184611ca8565b9392505050565b7f55736572206e6f74207265676973746572656400000000000000000000000000600082015250565b60006122b5601383611479565b91506122c08261227f565b602082019050919050565b600060208201905081810360008301526122e4816122a8565b9050919050565b7f4f6e6c7920666163756c74792f72657669657765722063616e20726576696577600082015250565b6000612321602083611479565b915061232c826122eb565b602082019050919050565b6000602082019050818103600083015261235081612314565b9050919050565b6000602082019050818103600083015261237181846114c5565b905092915050565b7f4f6e6c7920617574686f72732063616e207375626d6974000000000000000000600082015250565b60006123af601783611479565b91506123ba82612379565b602082019050919050565b600060208201905081810360008301526123de816123a2565b9050919050565b600060408201905081810360008301526123ff81856114c5565b9050818103602083015261241381846114c5565b9050939250505056fea2646970667358221220fe96b3c973bd4f4a89ed26f87399be295a6efb6a734ffbba9e7bc09ea941697564736f6c63430008130033",
  "immutableReferences": {},
  "source": "// SPDX-License-Identifier: MIT\r\npragma solidity ^0.8.0;\r\n\r\ncontract ScholarChain {\r\n    enum Role { None, Author, Faculty, Reviewer }\r\n\r\n    struct User {\r\n        Role role;\r\n        string name;\r\n    }\r\n\r\n    struct Paper {\r\n        uint256 paperId;\r\n        address author;\r\n        string title;\r\n        string ipfsHash;\r\n        uint256 timestamp;\r\n        string[] reviews;\r\n    }\r\n\r\n    address public owner;\r\n    uint256 public paperCount;\r\n\r\n    mapping(address => User) public users;\r\n    mapping(uint256 => Paper) public papers;\r\n\r\n    event UserRegistered(address indexed user, string name, Role role);\r\n    event PaperSubmitted(uint256 indexed paperId, address indexed author, string title, string ipfsHash);\r\n    event ReviewAdded(uint256 indexed paperId, address indexed reviewer, string comment);\r\n\r\n    constructor() {\r\n        owner = msg.sender;\r\n    }\r\n\r\n    modifier onlyRegistered() {\r\n        require(users[msg.sender].role != Role.None, \"User not registered\");\r\n        _;\r\n    }\r\n\r\n    function register(address _user, string memory _name, uint8 _role) public {\r\n        require(_user != address(0), \"Invalid address\");\r\n        require(users[_user].role == Role.None, \"User already registered\");\r\n        require(_role > 0 && _role <= uint8(Role.Reviewer), \"Invalid role\");\r\n\r\n        users[_user] = User(Role(_role), _name);\r\n        emit UserRegistered(_user, _name, Role(_role));\r\n    }\r\n\r\n    function submitPaper(string memory _title, string memory _ipfsHash) public onlyRegistered {\r\n        require(users[msg.sender].role == Role.Author, \"Only authors can submit\");\r\n\r\n        paperCount++;\r\n        papers[paperCount] = Paper({\r\n            paperId: paperCount,\r\n            author: msg.sender,\r\n            title: _title,\r\n            ipfsHash: _ipfsHash,\r\n            timestamp: block.timestamp,\r\n            reviews: new string[](0) \r\n        });\r\n\r\n        emit PaperSubmitted(paperCount, msg.sender, _title, _ipfsHash);\r\n    }\r\n\r\n    function addReview(uint256 _paperId, string memory _comment) public onlyRegistered {\r\n        require(_paperId > 0 && _paperId <= paperCount, \"Invalid paper ID\");\r\n        Role r = users[msg.sender].role;\r\n        require(r == Role.Faculty || r == Role.Reviewer, \"Only faculty/reviewer can review\");\r\n\r\n        papers[_paperId].reviews.push(_comment);\r\n        emit ReviewAdded(_paperId, msg.sender, _comment);\r\n    }\r\n\r\n    function getAllPapers() public view returns (Paper[] memory) {\r\n        Paper[] memory list = new Paper[](paperCount);\r\n        for (uint256 i = 1; i <= paperCount; i++) {\r\n            list[i - 1] = papers[i];\r\n        }\r\n        return list;\r\n    }\r\n\r\n    function getPaper(uint256 _paperId) public view returns (\r\n        uint256,\r\n        address,\r\n        string memory,\r\n        string memory,\r\n        uint256,\r\n        string[] memory\r\n    ) {\r\n        require(_paperId > 0 && _paperId <= paperCount, \"Invalid paper ID\");\r\n        Paper storage p = papers[_paperId];\r\n        return (p.paperId, p.author, p.title, p.ipfsHash, p.timestamp, p.reviews);\r\n    }\r\n}\r\n",
  "sourcePath": "E:\\DSNewFront\\contracts\\ResearchPortal.sol",
  "compiler": {
    "name": "solc",
    "version": "0.8.19+commit.7dd6d404.Emscripten.clang"
  },
  "schemaVersion": "3.4.16",
  "updatedAt": "2025-05-11T08:16:41.802Z",
  "devdoc": {
    "kind": "dev",
    "methods": {},
    "version": 1
  },
  "userdoc": {
    "kind": "user",
    "methods": {},
    "version": 1
  }
}